{
  "_format": "hh-sol-artifact-1",
  "contractName": "SwitchFactory",
  "sourceName": "contracts/SwitchFactory.sol",
  "abi": [
    {
      "inputs": [],
      "stateMutability": "nonpayable",
      "type": "constructor"
    },
    {
      "anonymous": false,
      "inputs": [
        {
          "indexed": false,
          "internalType": "uint256",
          "name": "switchId",
          "type": "uint256"
        },
        {
          "indexed": false,
          "internalType": "uint256",
          "name": "bounty",
          "type": "uint256"
        },
        {
          "indexed": false,
          "internalType": "uint256",
          "name": "executionTime",
          "type": "uint256"
        }
      ],
      "name": "SwitchActivated",
      "type": "event"
    },
    {
      "anonymous": false,
      "inputs": [
        {
          "indexed": false,
          "internalType": "uint256",
          "name": "switchId",
          "type": "uint256"
        }
      ],
      "name": "SwitchCanceled",
      "type": "event"
    },
    {
      "anonymous": false,
      "inputs": [
        {
          "indexed": false,
          "internalType": "uint256",
          "name": "switchId",
          "type": "uint256"
        },
        {
          "indexed": false,
          "internalType": "address",
          "name": "executor",
          "type": "address"
        },
        {
          "indexed": false,
          "internalType": "uint256",
          "name": "bounty",
          "type": "uint256"
        }
      ],
      "name": "SwitchExecuted",
      "type": "event"
    },
    {
      "anonymous": false,
      "inputs": [
        {
          "indexed": false,
          "internalType": "uint256",
          "name": "switchId",
          "type": "uint256"
        },
        {
          "indexed": false,
          "internalType": "uint256",
          "name": "newExecutionTime",
          "type": "uint256"
        }
      ],
      "name": "SwitchExtended",
      "type": "event"
    },
    {
      "inputs": [
        {
          "internalType": "uint256",
          "name": "_id",
          "type": "uint256"
        },
        {
          "internalType": "bool",
          "name": "withdraw",
          "type": "bool"
        }
      ],
      "name": "cancelSwitch",
      "outputs": [],
      "stateMutability": "nonpayable",
      "type": "function"
    },
    {
      "inputs": [
        {
          "internalType": "uint256",
          "name": "_id",
          "type": "uint256"
        }
      ],
      "name": "executeSwitch",
      "outputs": [],
      "stateMutability": "nonpayable",
      "type": "function"
    },
    {
      "inputs": [
        {
          "internalType": "uint256",
          "name": "_id",
          "type": "uint256"
        },
        {
          "internalType": "uint256",
          "name": "_newDelay",
          "type": "uint256"
        }
      ],
      "name": "extendSwitch",
      "outputs": [],
      "stateMutability": "nonpayable",
      "type": "function"
    },
    {
      "inputs": [],
      "name": "getAllSwitches",
      "outputs": [
        {
          "internalType": "uint256[]",
          "name": "",
          "type": "uint256[]"
        },
        {
          "internalType": "uint256[]",
          "name": "",
          "type": "uint256[]"
        },
        {
          "internalType": "uint256[]",
          "name": "",
          "type": "uint256[]"
        }
      ],
      "stateMutability": "view",
      "type": "function"
    },
    {
      "inputs": [
        {
          "internalType": "address",
          "name": "owner",
          "type": "address"
        }
      ],
      "name": "getOwnerIds",
      "outputs": [
        {
          "internalType": "uint256[]",
          "name": "",
          "type": "uint256[]"
        }
      ],
      "stateMutability": "view",
      "type": "function"
    },
    {
      "inputs": [
        {
          "internalType": "uint256",
          "name": "_id",
          "type": "uint256"
        }
      ],
      "name": "getSwitch",
      "outputs": [
        {
          "internalType": "uint256",
          "name": "",
          "type": "uint256"
        },
        {
          "internalType": "address",
          "name": "",
          "type": "address"
        },
        {
          "internalType": "uint256",
          "name": "",
          "type": "uint256"
        },
        {
          "internalType": "uint256",
          "name": "",
          "type": "uint256"
        },
        {
          "internalType": "address payable[]",
          "name": "",
          "type": "address[]"
        },
        {
          "internalType": "uint256[]",
          "name": "",
          "type": "uint256[]"
        }
      ],
      "stateMutability": "view",
      "type": "function"
    },
    {
      "inputs": [],
      "name": "getSwitchCount",
      "outputs": [
        {
          "internalType": "uint256",
          "name": "",
          "type": "uint256"
        }
      ],
      "stateMutability": "view",
      "type": "function"
    },
    {
      "inputs": [
        {
          "internalType": "address payable[]",
          "name": "_recipients",
          "type": "address[]"
        },
        {
          "internalType": "uint256[]",
          "name": "_amounts",
          "type": "uint256[]"
        },
        {
          "internalType": "uint256",
          "name": "_bounty",
          "type": "uint256"
        },
        {
          "internalType": "uint256",
          "name": "_delay",
          "type": "uint256"
        }
      ],
      "name": "newSwitch",
      "outputs": [
        {
          "internalType": "uint256",
          "name": "",
          "type": "uint256"
        }
      ],
      "stateMutability": "payable",
      "type": "function"
    },
    {
      "inputs": [
        {
          "internalType": "uint256",
          "name": "_id",
          "type": "uint256"
        },
        {
          "internalType": "uint256",
          "name": "_newDelay",
          "type": "uint256"
        }
      ],
      "name": "reopenSwitch",
      "outputs": [],
      "stateMutability": "nonpayable",
      "type": "function"
    }
  ],
  "bytecode": "0x608060405234801561001057600080fd5b50612895806100206000396000f3fe6080604052600436106100865760003560e01c8063825f127611610059578063825f127614610135578063a42b8a0a14610177578063c29c94ec146101a7578063cc852c43146101d0578063dce0a0821461020d57610086565b80632902af251461008b578063563516b1146100b65780635d574ef3146100df5780637a16b3e41461010c575b600080fd5b34801561009757600080fd5b506100a0610236565b6040516100ad91906117de565b60405180910390f35b3480156100c257600080fd5b506100dd60048036038101906100d89190611871565b610247565b005b3480156100eb57600080fd5b506100f461060d565b6040516101039392919061196f565b60405180910390f35b34801561011857600080fd5b50610133600480360381019061012e91906119bb565b610835565b005b34801561014157600080fd5b5061015c600480360381019061015791906119fb565b6109d3565b60405161016e96959493929190611b39565b60405180910390f35b610191600480360381019061018c9190611df0565b610be4565b60405161019e91906117de565b60405180910390f35b3480156101b357600080fd5b506101ce60048036038101906101c991906119fb565b610faf565b005b3480156101dc57600080fd5b506101f760048036038101906101f29190611ebb565b61135c565b6040516102049190611ee8565b60405180910390f35b34801561021957600080fd5b50610234600480360381019061022f91906119bb565b6113f3565b005b600061024260006115e8565b905090565b816001600082815260200190815260200160002060000160019054906101000a900473ffffffffffffffffffffffffffffffffffffffff1673ffffffffffffffffffffffffffffffffffffffff163373ffffffffffffffffffffffffffffffffffffffff16146102ec576040517f08c379a00000000000000000000000000000000000000000000000000000000081526004016102e390611f67565b60405180910390fd5b60006003811115610300576102ff611f87565b5b6001600085815260200190815260200160002060000160009054906101000a900460ff16600381111561033657610335611f87565b5b148061038957506001600381111561035157610350611f87565b5b6001600085815260200190815260200160002060000160009054906101000a900460ff16600381111561038757610386611f87565b5b145b6103c8576040517f08c379a00000000000000000000000000000000000000000000000000000000081526004016103bf90612028565b60405180910390fd5b600180600085815260200190815260200160002060000160006101000a81548160ff0219169083600381111561040157610400611f87565b5b021790555081156105d15760036001600085815260200190815260200160002060000160006101000a81548160ff0219169083600381111561044657610445611f87565b5b0217905550600080600090505b60016000868152602001908152602001600020600401805490508110156104c75760016000868152602001908152602001600020600401818154811061049c5761049b612048565b5b9060005260206000200154826104b291906120a6565b915080806104bf906120fc565b915050610453565b506001600085815260200190815260200160002060010154816104ea91906120a6565b905060006001600086815260200190815260200160002060000160019054906101000a900473ffffffffffffffffffffffffffffffffffffffff1673ffffffffffffffffffffffffffffffffffffffff168260405161054890612176565b60006040518083038185875af1925050503d8060008114610585576040519150601f19603f3d011682016040523d82523d6000602084013e61058a565b606091505b50509050806105ce576040517f08c379a00000000000000000000000000000000000000000000000000000000081526004016105c5906121d7565b60405180910390fd5b50505b7f51c07f9618e2df5c5f66d1c25cfb5246b793669a9e3efd8833490b50b69f80e08360405161060091906117de565b60405180910390a1505050565b6060806060600061061e60006115e8565b67ffffffffffffffff81111561063757610636611bbe565b5b6040519080825280602002602001820160405280156106655781602001602082028036833780820191505090505b509050600061067460006115e8565b67ffffffffffffffff81111561068d5761068c611bbe565b5b6040519080825280602002602001820160405280156106bb5781602001602082028036833780820191505090505b50905060006106ca60006115e8565b67ffffffffffffffff8111156106e3576106e2611bbe565b5b6040519080825280602002602001820160405280156107115781602001602082028036833780820191505090505b5090506000600190505b61072560006115e8565b8111610823576001600082815260200190815260200160002060000160009054906101000a900460ff16600381111561076157610760611f87565b5b8460018361076f91906121f7565b815181106107805761077f612048565b5b6020026020010181815250506001600082815260200190815260200160002060010154836001836107b191906121f7565b815181106107c2576107c1612048565b5b6020026020010181815250506001600082815260200190815260200160002060020154826001836107f391906121f7565b8151811061080457610803612048565b5b602002602001018181525050808061081b906120fc565b91505061071b565b50828282955095509550505050909192565b816001600082815260200190815260200160002060000160019054906101000a900473ffffffffffffffffffffffffffffffffffffffff1673ffffffffffffffffffffffffffffffffffffffff163373ffffffffffffffffffffffffffffffffffffffff16146108da576040517f08c379a00000000000000000000000000000000000000000000000000000000081526004016108d190611f67565b60405180910390fd5b600060038111156108ee576108ed611f87565b5b6001600085815260200190815260200160002060000160009054906101000a900460ff16600381111561092457610923611f87565b5b14610964576040517f08c379a000000000000000000000000000000000000000000000000000000000815260040161095b9061229d565b60405180910390fd5b814261097091906120a6565b60016000858152602001908152602001600020600201819055507f9750189fee8879cdccf2b3d1efbe8358a1e27f313480c73c981af0c141dcb1f08383426109b891906120a6565b6040516109c69291906122bd565b60405180910390a1505050565b6000806000806060806109e660006115e8565b871115610a28576040517f08c379a0000000000000000000000000000000000000000000000000000000008152600401610a1f90612332565b60405180910390fd5b600060016000898152602001908152602001600020600301805480602002602001604051908101604052809291908181526020018280548015610ac057602002820191906000526020600020905b8160009054906101000a900473ffffffffffffffffffffffffffffffffffffffff1673ffffffffffffffffffffffffffffffffffffffff1681526020019060010190808311610a76575b505050505090506000600160008a8152602001908152602001600020600401805480602002602001604051908101604052809291908181526020018280548015610b2957602002820191906000526020600020905b815481526020019060010190808311610b15575b50505050509050600160008a815260200190815260200160002060000160009054906101000a900460ff166003811115610b6657610b65611f87565b5b600160008b815260200190815260200160002060000160019054906101000a900473ffffffffffffffffffffffffffffffffffffffff16600160008c815260200190815260200160002060010154600160008d8152602001908152602001600020600201548585975097509750975097509750505091939550919395565b6000610c256040518060400160405280601581526020017f434f4e54524143542056414c55452053454e543a200000000000000000000000815250346115f6565b8351855114610c69576040517f08c379a0000000000000000000000000000000000000000000000000000000008152600401610c60906123c4565b60405180910390fd5b600080600090505b8551811015610d3f57600073ffffffffffffffffffffffffffffffffffffffff16878281518110610ca557610ca4612048565b5b602002602001015173ffffffffffffffffffffffffffffffffffffffff161415610d04576040517f08c379a0000000000000000000000000000000000000000000000000000000008152600401610cfb90612430565b60405180910390fd5b858181518110610d1757610d16612048565b5b602002602001015182610d2a91906120a6565b91508080610d37906120fc565b915050610c71565b508381610d4c91906120a6565b3414610d8d576040517f08c379a0000000000000000000000000000000000000000000000000000000008152600401610d84906124c2565b60405180910390fd5b610d976000611692565b6040518060c0016040528060006003811115610db657610db5611f87565b5b81526020013373ffffffffffffffffffffffffffffffffffffffff1681526020018581526020018442610de991906120a6565b81526020018781526020018681525060016000610e0660006115e8565b815260200190815260200160002060008201518160000160006101000a81548160ff02191690836003811115610e3f57610e3e611f87565b5b021790555060208201518160000160016101000a81548173ffffffffffffffffffffffffffffffffffffffff021916908373ffffffffffffffffffffffffffffffffffffffff16021790555060408201518160010155606082015181600201556080820151816003019080519060200190610ebb9291906116d1565b5060a0820151816004019080519060200190610ed892919061175b565b50905050600260003373ffffffffffffffffffffffffffffffffffffffff1673ffffffffffffffffffffffffffffffffffffffff168152602001908152602001600020610f2560006115e8565b90806001815401808255809150506001900390600052602060002001600090919091909150557f1be31bd09da041a2cc3a3da34375c4fa8d153706737742541392b0aea5d7ccb0610f7660006115e8565b858542610f8391906120a6565b604051610f92939291906124e2565b60405180910390a1610fa460006115e8565b915050949350505050565b60016000828152602001908152602001600020600201544211611007576040517f08c379a0000000000000000000000000000000000000000000000000000000008152600401610ffe90612565565b60405180910390fd5b6000600381111561101b5761101a611f87565b5b6001600083815260200190815260200160002060000160009054906101000a900460ff16600381111561105157611050611f87565b5b14611091576040517f08c379a0000000000000000000000000000000000000000000000000000000008152600401611088906125f7565b60405180910390fd5b60026001600083815260200190815260200160002060000160006101000a81548160ff021916908360038111156110cb576110ca611f87565b5b021790555060005b600160008381526020019081526020016000206004018054905081101561124457600060016000848152602001908152602001600020600301828154811061111e5761111d612048565b5b9060005260206000200160009054906101000a900473ffffffffffffffffffffffffffffffffffffffff169050600060016000858152602001908152602001600020600401838154811061117557611174612048565b5b9060005260206000200154905060008273ffffffffffffffffffffffffffffffffffffffff16826040516111a890612176565b60006040518083038185875af1925050503d80600081146111e5576040519150601f19603f3d011682016040523d82523d6000602084013e6111ea565b606091505b505090508061122e576040517f08c379a000000000000000000000000000000000000000000000000000000000815260040161122590612663565b60405180910390fd5b505050808061123c906120fc565b9150506110d3565b5060003373ffffffffffffffffffffffffffffffffffffffff16600160008481526020019081526020016000206001015460405161128190612176565b60006040518083038185875af1925050503d80600081146112be576040519150601f19603f3d011682016040523d82523d6000602084013e6112c3565b606091505b5050905080611307576040517f08c379a00000000000000000000000000000000000000000000000000000000081526004016112fe906126cf565b60405180910390fd5b7f7525aa30762cae2d850f4dcfe133e7fd82ac877c67c4405931898402cb9e6c2d82336001600086815260200190815260200160002060010154604051611350939291906126ef565b60405180910390a15050565b6060600260008373ffffffffffffffffffffffffffffffffffffffff1673ffffffffffffffffffffffffffffffffffffffff1681526020019081526020016000208054806020026020016040519081016040528092919081815260200182805480156113e757602002820191906000526020600020905b8154815260200190600101908083116113d3575b50505050509050919050565b816001600082815260200190815260200160002060000160019054906101000a900473ffffffffffffffffffffffffffffffffffffffff1673ffffffffffffffffffffffffffffffffffffffff163373ffffffffffffffffffffffffffffffffffffffff1614611498576040517f08c379a000000000000000000000000000000000000000000000000000000000815260040161148f90611f67565b60405180910390fd5b600160038111156114ac576114ab611f87565b5b6001600085815260200190815260200160002060000160009054906101000a900460ff1660038111156114e2576114e1611f87565b5b14611522576040517f08c379a000000000000000000000000000000000000000000000000000000000815260040161151990612798565b60405180910390fd5b814261152e91906120a6565b600160008581526020019081526020016000206002018190555060006001600085815260200190815260200160002060000160006101000a81548160ff0219169083600381111561158257611581611f87565b5b02179055507f1be31bd09da041a2cc3a3da34375c4fa8d153706737742541392b0aea5d7ccb083600160008681526020019081526020016000206001015484426115cc91906120a6565b6040516115db939291906124e2565b60405180910390a1505050565b600081600001549050919050565b61168e828260405160240161160c92919061282f565b6040516020818303038152906040527f9710a9d0000000000000000000000000000000000000000000000000000000007bffffffffffffffffffffffffffffffffffffffffffffffffffffffff19166020820180517bffffffffffffffffffffffffffffffffffffffffffffffffffffffff83818316178352505050506116a8565b5050565b6001816000016000828254019250508190555050565b60008151905060006a636f6e736f6c652e6c6f679050602083016000808483855afa5050505050565b82805482825590600052602060002090810192821561174a579160200282015b828111156117495782518260006101000a81548173ffffffffffffffffffffffffffffffffffffffff021916908373ffffffffffffffffffffffffffffffffffffffff160217905550916020019190600101906116f1565b5b50905061175791906117a8565b5090565b828054828255906000526020600020908101928215611797579160200282015b8281111561179657825182559160200191906001019061177b565b5b5090506117a491906117a8565b5090565b5b808211156117c15760008160009055506001016117a9565b5090565b6000819050919050565b6117d8816117c5565b82525050565b60006020820190506117f360008301846117cf565b92915050565b6000604051905090565b600080fd5b600080fd5b611816816117c5565b811461182157600080fd5b50565b6000813590506118338161180d565b92915050565b60008115159050919050565b61184e81611839565b811461185957600080fd5b50565b60008135905061186b81611845565b92915050565b6000806040838503121561188857611887611803565b5b600061189685828601611824565b92505060206118a78582860161185c565b9150509250929050565b600081519050919050565b600082825260208201905092915050565b6000819050602082019050919050565b6118e6816117c5565b82525050565b60006118f883836118dd565b60208301905092915050565b6000602082019050919050565b600061191c826118b1565b61192681856118bc565b9350611931836118cd565b8060005b8381101561196257815161194988826118ec565b975061195483611904565b925050600181019050611935565b5085935050505092915050565b600060608201905081810360008301526119898186611911565b9050818103602083015261199d8185611911565b905081810360408301526119b18184611911565b9050949350505050565b600080604083850312156119d2576119d1611803565b5b60006119e085828601611824565b92505060206119f185828601611824565b9150509250929050565b600060208284031215611a1157611a10611803565b5b6000611a1f84828501611824565b91505092915050565b600073ffffffffffffffffffffffffffffffffffffffff82169050919050565b6000611a5382611a28565b9050919050565b611a6381611a48565b82525050565b600081519050919050565b600082825260208201905092915050565b6000819050602082019050919050565b6000611aa082611a28565b9050919050565b611ab081611a95565b82525050565b6000611ac28383611aa7565b60208301905092915050565b6000602082019050919050565b6000611ae682611a69565b611af08185611a74565b9350611afb83611a85565b8060005b83811015611b2c578151611b138882611ab6565b9750611b1e83611ace565b925050600181019050611aff565b5085935050505092915050565b600060c082019050611b4e60008301896117cf565b611b5b6020830188611a5a565b611b6860408301876117cf565b611b7560608301866117cf565b8181036080830152611b878185611adb565b905081810360a0830152611b9b8184611911565b9050979650505050505050565b600080fd5b6000601f19601f8301169050919050565b7f4e487b7100000000000000000000000000000000000000000000000000000000600052604160045260246000fd5b611bf682611bad565b810181811067ffffffffffffffff82111715611c1557611c14611bbe565b5b80604052505050565b6000611c286117f9565b9050611c348282611bed565b919050565b600067ffffffffffffffff821115611c5457611c53611bbe565b5b602082029050602081019050919050565b600080fd5b611c7381611a95565b8114611c7e57600080fd5b50565b600081359050611c9081611c6a565b92915050565b6000611ca9611ca484611c39565b611c1e565b90508083825260208201905060208402830185811115611ccc57611ccb611c65565b5b835b81811015611cf55780611ce18882611c81565b845260208401935050602081019050611cce565b5050509392505050565b600082601f830112611d1457611d13611ba8565b5b8135611d24848260208601611c96565b91505092915050565b600067ffffffffffffffff821115611d4857611d47611bbe565b5b602082029050602081019050919050565b6000611d6c611d6784611d2d565b611c1e565b90508083825260208201905060208402830185811115611d8f57611d8e611c65565b5b835b81811015611db85780611da48882611824565b845260208401935050602081019050611d91565b5050509392505050565b600082601f830112611dd757611dd6611ba8565b5b8135611de7848260208601611d59565b91505092915050565b60008060008060808587031215611e0a57611e09611803565b5b600085013567ffffffffffffffff811115611e2857611e27611808565b5b611e3487828801611cff565b945050602085013567ffffffffffffffff811115611e5557611e54611808565b5b611e6187828801611dc2565b9350506040611e7287828801611824565b9250506060611e8387828801611824565b91505092959194509250565b611e9881611a48565b8114611ea357600080fd5b50565b600081359050611eb581611e8f565b92915050565b600060208284031215611ed157611ed0611803565b5b6000611edf84828501611ea6565b91505092915050565b60006020820190508181036000830152611f028184611911565b905092915050565b600082825260208201905092915050565b7f596f7520646f206e6f74206f776e207468697320737769746368000000000000600082015250565b6000611f51601a83611f0a565b9150611f5c82611f1b565b602082019050919050565b60006020820190508181036000830152611f8081611f44565b9050919050565b7f4e487b7100000000000000000000000000000000000000000000000000000000600052602160045260246000fd5b7f43616e6e6f742063616e63656c206578656375746564206f722077697468647260008201527f61776e20636f6e74726163740000000000000000000000000000000000000000602082015250565b6000612012602c83611f0a565b915061201d82611fb6565b604082019050919050565b6000602082019050818103600083015261204181612005565b9050919050565b7f4e487b7100000000000000000000000000000000000000000000000000000000600052603260045260246000fd5b7f4e487b7100000000000000000000000000000000000000000000000000000000600052601160045260246000fd5b60006120b1826117c5565b91506120bc836117c5565b9250827fffffffffffffffffffffffffffffffffffffffffffffffffffffffffffffffff038211156120f1576120f0612077565b5b828201905092915050565b6000612107826117c5565b91507fffffffffffffffffffffffffffffffffffffffffffffffffffffffffffffffff82141561213a57612139612077565b5b600182019050919050565b600081905092915050565b50565b6000612160600083612145565b915061216b82612150565b600082019050919050565b600061218182612153565b9150819050919050565b7f5769746864726177616c206661696c6564000000000000000000000000000000600082015250565b60006121c1601183611f0a565b91506121cc8261218b565b602082019050919050565b600060208201905081810360008301526121f0816121b4565b9050919050565b6000612202826117c5565b915061220d836117c5565b9250828210156122205761221f612077565b5b828203905092915050565b7f43616e6e6f7420657874656e64206120706175736564206f722065786563757460008201527f6564207377697463680000000000000000000000000000000000000000000000602082015250565b6000612287602983611f0a565b91506122928261222b565b604082019050919050565b600060208201905081810360008301526122b68161227a565b9050919050565b60006040820190506122d260008301856117cf565b6122df60208301846117cf565b9392505050565b7f494420646f6573206e6f74206578697374207965740000000000000000000000600082015250565b600061231c601583611f0a565b9150612327826122e6565b602082019050919050565b6000602082019050818103600083015261234b8161230f565b9050919050565b7f4e756d626572206f6620726563697069656e74732073686f756c64206d61746360008201527f68206e756d626572206f6620616d6f756e747300000000000000000000000000602082015250565b60006123ae603383611f0a565b91506123b982612352565b604082019050919050565b600060208201905081810360008301526123dd816123a1565b9050919050565b7f526563697069656e742063616e6e6f74206265207a65726f2061646472657373600082015250565b600061241a602083611f0a565b9150612425826123e4565b602082019050919050565b600060208201905081810360008301526124498161240d565b9050919050565b7f6d73672e76616c756520646f6573206e6f74206d617463682073756d206f662060008201527f616d6f756e747320706c757320626f756e747900000000000000000000000000602082015250565b60006124ac603383611f0a565b91506124b782612450565b604082019050919050565b600060208201905081810360008301526124db8161249f565b9050919050565b60006060820190506124f760008301866117cf565b61250460208301856117cf565b61251160408301846117cf565b949350505050565b7f546869732073776974636820686173206e6f74206d6174757265642079657400600082015250565b600061254f601f83611f0a565b915061255a82612519565b602082019050919050565b6000602082019050818103600083015261257e81612542565b9050919050565b7f5468697320737769746368206973206e6f742065786563757461626c6520616e60008201527f796d6f7265000000000000000000000000000000000000000000000000000000602082015250565b60006125e1602583611f0a565b91506125ec82612585565b604082019050919050565b60006020820190508181036000830152612610816125d4565b9050919050565b7f5472616e73666572206661696c65640000000000000000000000000000000000600082015250565b600061264d600f83611f0a565b915061265882612617565b602082019050919050565b6000602082019050818103600083015261267c81612640565b9050919050565b7f426f756e7479207472616e73666572206661696c656400000000000000000000600082015250565b60006126b9601683611f0a565b91506126c482612683565b602082019050919050565b600060208201905081810360008301526126e8816126ac565b9050919050565b600060608201905061270460008301866117cf565b6127116020830185611a5a565b61271e60408301846117cf565b949350505050565b7f43616e6e6f742072656f70656e20616e206f70656e2c2065786563757465642060008201527f6f722077697468647261776e2073776974636800000000000000000000000000602082015250565b6000612782603383611f0a565b915061278d82612726565b604082019050919050565b600060208201905081810360008301526127b181612775565b9050919050565b600081519050919050565b60005b838110156127e15780820151818401526020810190506127c6565b838111156127f0576000848401525b50505050565b6000612801826127b8565b61280b8185611f0a565b935061281b8185602086016127c3565b61282481611bad565b840191505092915050565b6000604082019050818103600083015261284981856127f6565b905061285860208301846117cf565b939250505056fea26469706673582212202a4f724d4d47bf9005c068d7b39e557de251b0878e3a4749f6e437f5f6d60e0c64736f6c634300080b0033",
  "linkReferences": {},
  "deployedLinkReferences": {}
}