{
  "_format": "hh-sol-artifact-1",
  "contractName": "SwitchFactory",
  "sourceName": "contracts/SwitchFactory.sol",
  "abi": [
    {
      "inputs": [],
      "stateMutability": "nonpayable",
      "type": "constructor"
    },
    {
      "anonymous": false,
      "inputs": [
        {
          "indexed": false,
          "internalType": "uint256",
          "name": "switchId",
          "type": "uint256"
        },
        {
          "indexed": false,
          "internalType": "uint256",
          "name": "bounty",
          "type": "uint256"
        },
        {
          "indexed": false,
          "internalType": "uint256",
          "name": "executionTime",
          "type": "uint256"
        }
      ],
      "name": "SwitchActivated",
      "type": "event"
    },
    {
      "anonymous": false,
      "inputs": [
        {
          "indexed": false,
          "internalType": "uint256",
          "name": "switchId",
          "type": "uint256"
        }
      ],
      "name": "SwitchCancelled",
      "type": "event"
    },
    {
      "anonymous": false,
      "inputs": [
        {
          "indexed": false,
          "internalType": "uint256",
          "name": "switchId",
          "type": "uint256"
        },
        {
          "indexed": false,
          "internalType": "address",
          "name": "executor",
          "type": "address"
        },
        {
          "indexed": false,
          "internalType": "uint256",
          "name": "bounty",
          "type": "uint256"
        }
      ],
      "name": "SwitchExecuted",
      "type": "event"
    },
    {
      "anonymous": false,
      "inputs": [
        {
          "indexed": false,
          "internalType": "uint256",
          "name": "switchId",
          "type": "uint256"
        },
        {
          "indexed": false,
          "internalType": "uint256",
          "name": "newExecutionTime",
          "type": "uint256"
        }
      ],
      "name": "SwitchExtended",
      "type": "event"
    },
    {
      "inputs": [
        {
          "internalType": "uint256",
          "name": "_id",
          "type": "uint256"
        }
      ],
      "name": "cancelSwitch",
      "outputs": [],
      "stateMutability": "nonpayable",
      "type": "function"
    },
    {
      "inputs": [
        {
          "internalType": "uint256",
          "name": "_id",
          "type": "uint256"
        }
      ],
      "name": "executeSwitch",
      "outputs": [],
      "stateMutability": "nonpayable",
      "type": "function"
    },
    {
      "inputs": [
        {
          "internalType": "uint256",
          "name": "_id",
          "type": "uint256"
        },
        {
          "internalType": "uint256",
          "name": "_newDelay",
          "type": "uint256"
        }
      ],
      "name": "extendSwitch",
      "outputs": [],
      "stateMutability": "nonpayable",
      "type": "function"
    },
    {
      "inputs": [],
      "name": "getAllSwitches",
      "outputs": [
        {
          "internalType": "uint256[]",
          "name": "",
          "type": "uint256[]"
        },
        {
          "internalType": "uint256[]",
          "name": "",
          "type": "uint256[]"
        },
        {
          "internalType": "uint256[]",
          "name": "",
          "type": "uint256[]"
        }
      ],
      "stateMutability": "view",
      "type": "function"
    },
    {
      "inputs": [
        {
          "internalType": "address",
          "name": "owner",
          "type": "address"
        }
      ],
      "name": "getOwnerIds",
      "outputs": [
        {
          "internalType": "uint256[]",
          "name": "",
          "type": "uint256[]"
        }
      ],
      "stateMutability": "view",
      "type": "function"
    },
    {
      "inputs": [
        {
          "internalType": "uint256",
          "name": "_id",
          "type": "uint256"
        }
      ],
      "name": "getSwitch",
      "outputs": [
        {
          "internalType": "uint256",
          "name": "",
          "type": "uint256"
        },
        {
          "internalType": "address",
          "name": "",
          "type": "address"
        },
        {
          "internalType": "uint256",
          "name": "",
          "type": "uint256"
        },
        {
          "internalType": "uint256",
          "name": "",
          "type": "uint256"
        },
        {
          "internalType": "address payable[]",
          "name": "",
          "type": "address[]"
        },
        {
          "internalType": "uint256[]",
          "name": "",
          "type": "uint256[]"
        }
      ],
      "stateMutability": "view",
      "type": "function"
    },
    {
      "inputs": [],
      "name": "getSwitchCount",
      "outputs": [
        {
          "internalType": "uint256",
          "name": "",
          "type": "uint256"
        }
      ],
      "stateMutability": "view",
      "type": "function"
    },
    {
      "inputs": [
        {
          "internalType": "address payable[]",
          "name": "_recipients",
          "type": "address[]"
        },
        {
          "internalType": "uint256[]",
          "name": "_amounts",
          "type": "uint256[]"
        },
        {
          "internalType": "uint256",
          "name": "_bounty",
          "type": "uint256"
        },
        {
          "internalType": "uint256",
          "name": "_delay",
          "type": "uint256"
        }
      ],
      "name": "newSwitch",
      "outputs": [
        {
          "internalType": "uint256",
          "name": "",
          "type": "uint256"
        }
      ],
      "stateMutability": "payable",
      "type": "function"
    },
    {
      "inputs": [
        {
          "internalType": "uint256",
          "name": "_id",
          "type": "uint256"
        },
        {
          "internalType": "uint256",
          "name": "_newDelay",
          "type": "uint256"
        }
      ],
      "name": "reopenSwitch",
      "outputs": [],
      "stateMutability": "nonpayable",
      "type": "function"
    }
  ],
  "bytecode": "0x608060405234801561001057600080fd5b506123bf806100206000396000f3fe6080604052600436106100865760003560e01c8063825f127611610059578063825f127614610135578063a42b8a0a14610177578063c29c94ec146101a7578063cc852c43146101d0578063dce0a0821461020d57610086565b80632902af251461008b5780635d574ef3146100b65780636c9dd0bd146100e35780637a16b3e41461010c575b600080fd5b34801561009757600080fd5b506100a0610236565b6040516100ad91906114ea565b60405180910390f35b3480156100c257600080fd5b506100cb610247565b6040516100da939291906115c3565b60405180910390f35b3480156100ef57600080fd5b5061010a6004803603810190610105919061164f565b61046f565b005b34801561011857600080fd5b50610133600480360381019061012e919061167c565b61058d565b005b34801561014157600080fd5b5061015c6004803603810190610157919061164f565b61072b565b60405161016e969594939291906117cd565b60405180910390f35b610191600480360381019061018c9190611a84565b6108f0565b60405161019e91906114ea565b60405180910390f35b3480156101b357600080fd5b506101ce60048036038101906101c9919061164f565b610cbb565b005b3480156101dc57600080fd5b506101f760048036038101906101f29190611b4f565b611068565b6040516102049190611b7c565b60405180910390f35b34801561021957600080fd5b50610234600480360381019061022f919061167c565b6110ff565b005b600061024260006112f4565b905090565b6060806060600061025860006112f4565b67ffffffffffffffff81111561027157610270611852565b5b60405190808252806020026020018201604052801561029f5781602001602082028036833780820191505090505b50905060006102ae60006112f4565b67ffffffffffffffff8111156102c7576102c6611852565b5b6040519080825280602002602001820160405280156102f55781602001602082028036833780820191505090505b509050600061030460006112f4565b67ffffffffffffffff81111561031d5761031c611852565b5b60405190808252806020026020018201604052801561034b5781602001602082028036833780820191505090505b5090506000600190505b61035f60006112f4565b811161045d576001600082815260200190815260200160002060000160009054906101000a900460ff16600281111561039b5761039a611b9e565b5b846001836103a99190611bfc565b815181106103ba576103b9611c30565b5b6020026020010181815250506001600082815260200190815260200160002060010154836001836103eb9190611bfc565b815181106103fc576103fb611c30565b5b60200260200101818152505060016000828152602001908152602001600020600201548260018361042d9190611bfc565b8151811061043e5761043d611c30565b5b602002602001018181525050808061045590611c5f565b915050610355565b50828282955095509550505050909192565b806001600082815260200190815260200160002060000160019054906101000a900473ffffffffffffffffffffffffffffffffffffffff1673ffffffffffffffffffffffffffffffffffffffff163373ffffffffffffffffffffffffffffffffffffffff1614610514576040517f08c379a000000000000000000000000000000000000000000000000000000000815260040161050b90611d05565b60405180910390fd5b600180600084815260200190815260200160002060000160006101000a81548160ff0219169083600281111561054d5761054c611b9e565b5b02179055507fc646ce4a97a2069038e5dfcf35134461a5ab4855bf35e704077d5ae9641591028260405161058191906114ea565b60405180910390a15050565b816001600082815260200190815260200160002060000160019054906101000a900473ffffffffffffffffffffffffffffffffffffffff1673ffffffffffffffffffffffffffffffffffffffff163373ffffffffffffffffffffffffffffffffffffffff1614610632576040517f08c379a000000000000000000000000000000000000000000000000000000000815260040161062990611d05565b60405180910390fd5b6000600281111561064657610645611b9e565b5b6001600085815260200190815260200160002060000160009054906101000a900460ff16600281111561067c5761067b611b9e565b5b146106bc576040517f08c379a00000000000000000000000000000000000000000000000000000000081526004016106b390611d97565b60405180910390fd5b81426106c89190611db7565b60016000858152602001908152602001600020600201819055507f9750189fee8879cdccf2b3d1efbe8358a1e27f313480c73c981af0c141dcb1f08383426107109190611db7565b60405161071e929190611e0d565b60405180910390a1505050565b6000806000806060806000600160008981526020019081526020016000206003018054806020026020016040519081016040528092919081815260200182805480156107cc57602002820191906000526020600020905b8160009054906101000a900473ffffffffffffffffffffffffffffffffffffffff1673ffffffffffffffffffffffffffffffffffffffff1681526020019060010190808311610782575b505050505090506000600160008a815260200190815260200160002060040180548060200260200160405190810160405280929190818152602001828054801561083557602002820191906000526020600020905b815481526020019060010190808311610821575b50505050509050600160008a815260200190815260200160002060000160009054906101000a900460ff16600281111561087257610871611b9e565b5b600160008b815260200190815260200160002060000160019054906101000a900473ffffffffffffffffffffffffffffffffffffffff16600160008c815260200190815260200160002060010154600160008d8152602001908152602001600020600201548585975097509750975097509750505091939550919395565b60006109316040518060400160405280601581526020017f434f4e54524143542056414c55452053454e543a20000000000000000000000081525034611302565b8351855114610975576040517f08c379a000000000000000000000000000000000000000000000000000000000815260040161096c90611ea8565b60405180910390fd5b600080600090505b8551811015610a4b57600073ffffffffffffffffffffffffffffffffffffffff168782815181106109b1576109b0611c30565b5b602002602001015173ffffffffffffffffffffffffffffffffffffffff161415610a10576040517f08c379a0000000000000000000000000000000000000000000000000000000008152600401610a0790611f14565b60405180910390fd5b858181518110610a2357610a22611c30565b5b602002602001015182610a369190611db7565b91508080610a4390611c5f565b91505061097d565b508381610a589190611db7565b3414610a99576040517f08c379a0000000000000000000000000000000000000000000000000000000008152600401610a9090611fa6565b60405180910390fd5b610aa3600061139e565b6040518060c0016040528060006002811115610ac257610ac1611b9e565b5b81526020013373ffffffffffffffffffffffffffffffffffffffff1681526020018581526020018442610af59190611db7565b81526020018781526020018681525060016000610b1260006112f4565b815260200190815260200160002060008201518160000160006101000a81548160ff02191690836002811115610b4b57610b4a611b9e565b5b021790555060208201518160000160016101000a81548173ffffffffffffffffffffffffffffffffffffffff021916908373ffffffffffffffffffffffffffffffffffffffff16021790555060408201518160010155606082015181600201556080820151816003019080519060200190610bc79291906113dd565b5060a0820151816004019080519060200190610be4929190611467565b50905050600260003373ffffffffffffffffffffffffffffffffffffffff1673ffffffffffffffffffffffffffffffffffffffff168152602001908152602001600020610c3160006112f4565b90806001815401808255809150506001900390600052602060002001600090919091909150557f1be31bd09da041a2cc3a3da34375c4fa8d153706737742541392b0aea5d7ccb0610c8260006112f4565b858542610c8f9190611db7565b604051610c9e93929190611fc6565b60405180910390a1610cb060006112f4565b915050949350505050565b60016000828152602001908152602001600020600201544211610d13576040517f08c379a0000000000000000000000000000000000000000000000000000000008152600401610d0a90612049565b60405180910390fd5b60006002811115610d2757610d26611b9e565b5b6001600083815260200190815260200160002060000160009054906101000a900460ff166002811115610d5d57610d5c611b9e565b5b14610d9d576040517f08c379a0000000000000000000000000000000000000000000000000000000008152600401610d94906120db565b60405180910390fd5b60026001600083815260200190815260200160002060000160006101000a81548160ff02191690836002811115610dd757610dd6611b9e565b5b021790555060005b6001600083815260200190815260200160002060040180549050811015610f50576000600160008481526020019081526020016000206003018281548110610e2a57610e29611c30565b5b9060005260206000200160009054906101000a900473ffffffffffffffffffffffffffffffffffffffff1690506000600160008581526020019081526020016000206004018381548110610e8157610e80611c30565b5b9060005260206000200154905060008273ffffffffffffffffffffffffffffffffffffffff1682604051610eb49061212c565b60006040518083038185875af1925050503d8060008114610ef1576040519150601f19603f3d011682016040523d82523d6000602084013e610ef6565b606091505b5050905080610f3a576040517f08c379a0000000000000000000000000000000000000000000000000000000008152600401610f319061218d565b60405180910390fd5b5050508080610f4890611c5f565b915050610ddf565b5060003373ffffffffffffffffffffffffffffffffffffffff166001600084815260200190815260200160002060010154604051610f8d9061212c565b60006040518083038185875af1925050503d8060008114610fca576040519150601f19603f3d011682016040523d82523d6000602084013e610fcf565b606091505b5050905080611013576040517f08c379a000000000000000000000000000000000000000000000000000000000815260040161100a906121f9565b60405180910390fd5b7f7525aa30762cae2d850f4dcfe133e7fd82ac877c67c4405931898402cb9e6c2d8233600160008681526020019081526020016000206001015460405161105c93929190612219565b60405180910390a15050565b6060600260008373ffffffffffffffffffffffffffffffffffffffff1673ffffffffffffffffffffffffffffffffffffffff1681526020019081526020016000208054806020026020016040519081016040528092919081815260200182805480156110f357602002820191906000526020600020905b8154815260200190600101908083116110df575b50505050509050919050565b816001600082815260200190815260200160002060000160019054906101000a900473ffffffffffffffffffffffffffffffffffffffff1673ffffffffffffffffffffffffffffffffffffffff163373ffffffffffffffffffffffffffffffffffffffff16146111a4576040517f08c379a000000000000000000000000000000000000000000000000000000000815260040161119b90611d05565b60405180910390fd5b600160028111156111b8576111b7611b9e565b5b6001600085815260200190815260200160002060000160009054906101000a900460ff1660028111156111ee576111ed611b9e565b5b1461122e576040517f08c379a0000000000000000000000000000000000000000000000000000000008152600401611225906122c2565b60405180910390fd5b814261123a9190611db7565b600160008581526020019081526020016000206002018190555060006001600085815260200190815260200160002060000160006101000a81548160ff0219169083600281111561128e5761128d611b9e565b5b02179055507f1be31bd09da041a2cc3a3da34375c4fa8d153706737742541392b0aea5d7ccb083600160008681526020019081526020016000206001015484426112d89190611db7565b6040516112e793929190611fc6565b60405180910390a1505050565b600081600001549050919050565b61139a8282604051602401611318929190612359565b6040516020818303038152906040527f9710a9d0000000000000000000000000000000000000000000000000000000007bffffffffffffffffffffffffffffffffffffffffffffffffffffffff19166020820180517bffffffffffffffffffffffffffffffffffffffffffffffffffffffff83818316178352505050506113b4565b5050565b6001816000016000828254019250508190555050565b60008151905060006a636f6e736f6c652e6c6f679050602083016000808483855afa5050505050565b828054828255906000526020600020908101928215611456579160200282015b828111156114555782518260006101000a81548173ffffffffffffffffffffffffffffffffffffffff021916908373ffffffffffffffffffffffffffffffffffffffff160217905550916020019190600101906113fd565b5b50905061146391906114b4565b5090565b8280548282559060005260206000209081019282156114a3579160200282015b828111156114a2578251825591602001919060010190611487565b5b5090506114b091906114b4565b5090565b5b808211156114cd5760008160009055506001016114b5565b5090565b6000819050919050565b6114e4816114d1565b82525050565b60006020820190506114ff60008301846114db565b92915050565b600081519050919050565b600082825260208201905092915050565b6000819050602082019050919050565b61153a816114d1565b82525050565b600061154c8383611531565b60208301905092915050565b6000602082019050919050565b600061157082611505565b61157a8185611510565b935061158583611521565b8060005b838110156115b657815161159d8882611540565b97506115a883611558565b925050600181019050611589565b5085935050505092915050565b600060608201905081810360008301526115dd8186611565565b905081810360208301526115f18185611565565b905081810360408301526116058184611565565b9050949350505050565b6000604051905090565b600080fd5b600080fd5b61162c816114d1565b811461163757600080fd5b50565b60008135905061164981611623565b92915050565b60006020828403121561166557611664611619565b5b60006116738482850161163a565b91505092915050565b6000806040838503121561169357611692611619565b5b60006116a18582860161163a565b92505060206116b28582860161163a565b9150509250929050565b600073ffffffffffffffffffffffffffffffffffffffff82169050919050565b60006116e7826116bc565b9050919050565b6116f7816116dc565b82525050565b600081519050919050565b600082825260208201905092915050565b6000819050602082019050919050565b6000611734826116bc565b9050919050565b61174481611729565b82525050565b6000611756838361173b565b60208301905092915050565b6000602082019050919050565b600061177a826116fd565b6117848185611708565b935061178f83611719565b8060005b838110156117c05781516117a7888261174a565b97506117b283611762565b925050600181019050611793565b5085935050505092915050565b600060c0820190506117e260008301896114db565b6117ef60208301886116ee565b6117fc60408301876114db565b61180960608301866114db565b818103608083015261181b818561176f565b905081810360a083015261182f8184611565565b9050979650505050505050565b600080fd5b6000601f19601f8301169050919050565b7f4e487b7100000000000000000000000000000000000000000000000000000000600052604160045260246000fd5b61188a82611841565b810181811067ffffffffffffffff821117156118a9576118a8611852565b5b80604052505050565b60006118bc61160f565b90506118c88282611881565b919050565b600067ffffffffffffffff8211156118e8576118e7611852565b5b602082029050602081019050919050565b600080fd5b61190781611729565b811461191257600080fd5b50565b600081359050611924816118fe565b92915050565b600061193d611938846118cd565b6118b2565b905080838252602082019050602084028301858111156119605761195f6118f9565b5b835b8181101561198957806119758882611915565b845260208401935050602081019050611962565b5050509392505050565b600082601f8301126119a8576119a761183c565b5b81356119b884826020860161192a565b91505092915050565b600067ffffffffffffffff8211156119dc576119db611852565b5b602082029050602081019050919050565b6000611a006119fb846119c1565b6118b2565b90508083825260208201905060208402830185811115611a2357611a226118f9565b5b835b81811015611a4c5780611a38888261163a565b845260208401935050602081019050611a25565b5050509392505050565b600082601f830112611a6b57611a6a61183c565b5b8135611a7b8482602086016119ed565b91505092915050565b60008060008060808587031215611a9e57611a9d611619565b5b600085013567ffffffffffffffff811115611abc57611abb61161e565b5b611ac887828801611993565b945050602085013567ffffffffffffffff811115611ae957611ae861161e565b5b611af587828801611a56565b9350506040611b068782880161163a565b9250506060611b178782880161163a565b91505092959194509250565b611b2c816116dc565b8114611b3757600080fd5b50565b600081359050611b4981611b23565b92915050565b600060208284031215611b6557611b64611619565b5b6000611b7384828501611b3a565b91505092915050565b60006020820190508181036000830152611b968184611565565b905092915050565b7f4e487b7100000000000000000000000000000000000000000000000000000000600052602160045260246000fd5b7f4e487b7100000000000000000000000000000000000000000000000000000000600052601160045260246000fd5b6000611c07826114d1565b9150611c12836114d1565b925082821015611c2557611c24611bcd565b5b828203905092915050565b7f4e487b7100000000000000000000000000000000000000000000000000000000600052603260045260246000fd5b6000611c6a826114d1565b91507fffffffffffffffffffffffffffffffffffffffffffffffffffffffffffffffff821415611c9d57611c9c611bcd565b5b600182019050919050565b600082825260208201905092915050565b7f596f7520646f206e6f74206f776e207468697320737769746368000000000000600082015250565b6000611cef601a83611ca8565b9150611cfa82611cb9565b602082019050919050565b60006020820190508181036000830152611d1e81611ce2565b9050919050565b7f43616e6e6f7420657874656e64206120636c6f736564206f722065786563757460008201527f6564207377697463680000000000000000000000000000000000000000000000602082015250565b6000611d81602983611ca8565b9150611d8c82611d25565b604082019050919050565b60006020820190508181036000830152611db081611d74565b9050919050565b6000611dc2826114d1565b9150611dcd836114d1565b9250827fffffffffffffffffffffffffffffffffffffffffffffffffffffffffffffffff03821115611e0257611e01611bcd565b5b828201905092915050565b6000604082019050611e2260008301856114db565b611e2f60208301846114db565b9392505050565b7f4e756d626572206f6620726563697069656e74732073686f756c64206d61746360008201527f68206e756d626572206f6620616d6f756e747300000000000000000000000000602082015250565b6000611e92603383611ca8565b9150611e9d82611e36565b604082019050919050565b60006020820190508181036000830152611ec181611e85565b9050919050565b7f526563697069656e742063616e6e6f74206265207a65726f2061646472657373600082015250565b6000611efe602083611ca8565b9150611f0982611ec8565b602082019050919050565b60006020820190508181036000830152611f2d81611ef1565b9050919050565b7f6d73672e76616c756520646f6573206e6f74206d617463682073756d206f662060008201527f616d6f756e747320706c757320626f756e747900000000000000000000000000602082015250565b6000611f90603383611ca8565b9150611f9b82611f34565b604082019050919050565b60006020820190508181036000830152611fbf81611f83565b9050919050565b6000606082019050611fdb60008301866114db565b611fe860208301856114db565b611ff560408301846114db565b949350505050565b7f546869732073776974636820686173206e6f74206d6174757265642079657400600082015250565b6000612033601f83611ca8565b915061203e82611ffd565b602082019050919050565b6000602082019050818103600083015261206281612026565b9050919050565b7f5468697320737769746368206973206e6f742065786563757461626c6520616e60008201527f796d6f7265000000000000000000000000000000000000000000000000000000602082015250565b60006120c5602583611ca8565b91506120d082612069565b604082019050919050565b600060208201905081810360008301526120f4816120b8565b9050919050565b600081905092915050565b50565b60006121166000836120fb565b915061212182612106565b600082019050919050565b600061213782612109565b9150819050919050565b7f5472616e73666572206661696c65640000000000000000000000000000000000600082015250565b6000612177600f83611ca8565b915061218282612141565b602082019050919050565b600060208201905081810360008301526121a68161216a565b9050919050565b7f426f756e7479207472616e73666572206661696c656400000000000000000000600082015250565b60006121e3601683611ca8565b91506121ee826121ad565b602082019050919050565b60006020820190508181036000830152612212816121d6565b9050919050565b600060608201905061222e60008301866114db565b61223b60208301856116ee565b61224860408301846114db565b949350505050565b7f43616e6e6f742072656f70656e20616e206f70656e206f72206578656375746560008201527f6420737769746368000000000000000000000000000000000000000000000000602082015250565b60006122ac602883611ca8565b91506122b782612250565b604082019050919050565b600060208201905081810360008301526122db8161229f565b9050919050565b600081519050919050565b60005b8381101561230b5780820151818401526020810190506122f0565b8381111561231a576000848401525b50505050565b600061232b826122e2565b6123358185611ca8565b93506123458185602086016122ed565b61234e81611841565b840191505092915050565b600060408201905081810360008301526123738185612320565b905061238260208301846114db565b939250505056fea2646970667358221220c1d2ed5a8ebb3e77fd58fb5aff43f3b30ef2fb723f4ac8cd96543dc37b28998664736f6c634300080b0033",
  "linkReferences": {},
  "deployedLinkReferences": {}
}